:020000040800F2
:10000000005000202D180008B1170008B317000891
:10001000B5170008B7170008B9170008000000005E
:10002000000000000000000000000000BB170008F6
:10003000BD17000800000000BF170008C117000826
:10004000751800087518000875180008751800085C
:10005000751800087518000875180008751800084C
:10006000751800087518000875180008751800083C
:10007000751800087518000875180008751800082C
:10008000751800087518000875180008751800081C
:10009000751800087518000875180008751800080C
:1000A00075180008751800087518000875180008FC
:1000B00075180008751800087518000875180008EC
:1000C00075180008751800087518000875180008DC
:1000D00075180008D1170008751800087518000871
:1000E0007518000875180008751800080000000051
:1000F0000000000000000000000000000000000000
:0C01000000000000000000005FF808F1A3
:10010C0010B5054C237833B9044B13B10448AFF345
:10011C0000800123237010BD70000020000000003F
:10012C008821000808B5034B1BB103490348AFF302
:10013C00008008BD00000000740000208821000829
:10014C00034613F8012B002AFBD1181A013870470B
:10015C0038B50E4B054618784FF47A73B3FBF0F3B1
:10016C000B4A1068B0FBF3F000F09EF8044658B947
:10017C000F2D09D8024629464FF0FF3000F054F8F5
:10018C00044B20461D6038BD012038BD0000002006
:10019C000800002004000020074A08B5136803205B
:1001AC0043F01003136000F02DF80020FFF7D0FF90
:1001BC0001F0F4F9002008BD00200240034A044B72
:1001CC0011681B780B441360704700BFA00000201F
:1001DC0000000020014B1868704700BFA0000020F1
:1001EC0038B50446FFF7F6FF0546631C1EBF044BEB
:1001FC001B78E418FFF7EEFF401B8442FAD838BD99
:10020C0000000020074A0002D36800F4E06023F4E9
:10021C00E0631B041B0C43F0BF6343F40033034344
:10022C00D360704700ED00E0174B30B5DC68C4F3C9
:10023C000224C4F10703251D042B28BF0423062D1B
:10024C004FF0010598BF002405FA03F303F1FF33C7
:10025C0088BF033C1940A14005FA04F4013C22403C
:10026C00002842EA01024FEA0212AFBF00F16040DF
:10027C00064B00F00F00D2B2A5BFD2B200F5614020
:10028C001A5480F8002330BD00ED00E014ED00E0BE
:10029C000123420900F01F0003FA00F0014B43F860
:1002AC002200704700E100E00138B0F1807F0AD2F3
:1002BC00F021064B064A586082F8231000200722D2
:1002CC0098601A6070470120704700BF10E000E092
:1002DC0000ED00E0044B04281A680CBF42F0040245
:1002EC0022F004021A60704710E000E0704708B575
:1002FC00FFF7FCFF08BD00002DE9F74F0022164662
:10030C00654BDFF8A4E1DFF8A4C14FF001080C68DD
:10031C0008FA06F808EA0404A0457FD14D68122DAE
:10032C0000F0AF8000F28880022D00F0A7807CD80E
:10033C00002D00F08E80012D00F09E804FF00F09F3
:10034C00FF2C93BF824606F18045083DD0F800B0E3
:10035C0092BFB500D0F804B0AD0009FA05F82BEA4D
:10036C00080802FA05F588BF00F1040A48EA0505F9
:10037C00CAF80050D1F804A01AF0805F4ED0474D57
:10038C00464FAD6926F0030845F00105BD61BD6916
:10039C0008F1804805F00105019508F5803806F054
:1003AC00030B019D4FEA8B0BD8F8085009FA0BF997
:1003BC0025EA09093A4DA84268D005F58065A8429E
:1003CC0066D005F58065A84264D005F58065A84225
:1003DC000CBF0325042505FA0BF545EA0905C8F8F9
:1003EC0008501D681AF4803F14BF2543A5431D60B7
:1003FC005D681AF4003F14BF2543A5435D609D68FA
:10040C001AF4801F14BF2543A5439D60DD681AF4C0
:10041C00001F14BF2C4325EA0404DC600136102EA7
:10042C007FF473AF03B0BDE8F08F032D22D0112DF4
:10043C0084D1CA68043281E71A4FBD4209D012D860
:10044C00DFF86C904D4504D009F580394D457FF4AB
:10045C0075AF8A68C2B1012A0CBFC0F81080C0F811
:10046C00148008226AE77545F3D06545F1D0DFF8B2
:10047C004490EBE7002261E7CA685FE7CA6808327C
:10048C005CE7CA680C3259E7042257E70025A2E75B
:10049C000125A0E702259EE7000401400010024060
:1004AC000008014000002110000031100000321043
:1004BC00000011100000221003682DE9F341DB0746
:1004CC00054610D42B689F075ED42B68190700F1E2
:1004DC0095802B685A0700F1BF80EA69002A40F02A
:1004EC002D81002014E0904C636803F00C03042B66
:1004FC0007D0636803F00C03082B0CD16368DE0390
:10050C0009D523689C03DDD56B68002BDAD101205B
:10051C0002B0BDE8F0816B68B3F5803F10D1236861
:10052C0043F480332360FFF755FE06462368980397
:10053C00C8D4FFF74FFE801B6428F7D90320E7E7E8
:10054C009BB9236823F480332360236823F480232E
:10055C002360FFF73FFE064623689903B2D5FFF7E9
:10056C0039FE801B6428F7D9E8E7B3F5A02F236880
:10057C0003D143F480232360D1E723F48033236039
:10058C00236823F48023CDE7674C636813F00C0FCA
:10059C0007D0636803F00C03082B10D16368DA03EF
:1005AC000DD423689B0702D52B69012BAFD123688F
:1005BC006A6923F0F80343EAC203236085E72A69DA
:1005CC005A4B6AB101221A60FFF704FE06462368F3
:1005DC009F07ECD4FFF7FEFD801B0228F7D9ADE78F
:1005EC001A60FFF7F7FD0646236898077FF56DAF95
:1005FC00FFF7F0FD801B0228F6D99FE7AA694A4C49
:10060C004B4BDAB101221A60FFF7E4FD0646636A30
:10061C009B070DD54FF4FA52464B1B68B3FBF2F314
:10062C00019300BF019B5A1E0192002BF9D150E798
:10063C00FFF7D0FD801B0228E9D97FE71A60FFF78E
:10064C00C9FD0646636A9F077FF543AFFFF7C2FDFE
:10065C00801B0228F6D971E7334CE369D80024D407
:10066C000127E36943F08053E361E36903F08053AE
:10067C000093009B304E3368D90518D5EB68012BDD
:10068C0026D1236A43F001032362FFF7A3FD41F255
:10069C0088368046236A9B073FD5002F3FF41DAF59
:1006AC00E36923F08053E36117E70027E2E733683F
:1006BC0043F480733360FFF78DFD80463368DA05B1
:1006CC00DCD4FFF787FDA0EB08006428F6D935E7EA
:1006DC00ABB9236A41F2883823F001032362236A01
:1006EC0023F004032362FFF775FD0646236A98077F
:1006FC00D3D5FFF76FFD801B4045F7D91EE7052BBF
:10070C00236A03D143F004032362BAE723F0010305
:10071C002362236A23F00403B6E7FFF75BFDA0EB2B
:10072C000800B042B6D909E700100240000042426E
:10073C00800442420800002000700040224C636894
:10074C0003F00C03082B3FF4E2AE00231F4E022AE9
:10075C0033602BD1FFF73EFD0746236899011FD468
:10076C002B6AB3F5803F05D16268A96822F4003288
:10077C000A436260696A62680B4322F47412134381
:10078C00636001233360FFF725FD054623689A015A
:10079C003FF5A7AEFFF71EFD401B0228F6D9CDE6AC
:1007AC00FFF718FDC01B0228D7D9C7E6FFF712FDCB
:1007BC00054623689B017FF594AEFFF70BFD401BAC
:1007CC000228F6D9BAE600BF00100240600042428F
:1007DC0030B5194B87B002AC03F1100522461868EE
:1007EC005968083303C2AB421446F7D101238DF884
:1007FC000430022311498DF805304B6803F00C02CC
:10080C00082A17D1C3F3834206A80244DB0312F86B
:10081C00102C0CD54B680A48C3F34043504306AA2E
:10082C00134413F8143CB0FBF3F007B030BD05488B
:10083C005043FAE70248F8E7A021000800100240F4
:10084C0000127A0000093D004D4A2DE9F041136871
:10085C00054603F007038B420E4628D32A689107FE
:10086C0032D4D20738D4464A136803F007039E42A9
:10087C0073D32A68434C12F0040F79D1130706D5B1
:10088C0063682A6923F4605343EAC2036360FFF789
:10089C009FFF63683C4AC3F30313D35CD8403B4BC4
:1008AC0018600020FFF754FC0020BDE8F0811368AD
:1008BC0023F007030B431360136803F007039942FB
:1008CC00CCD00120BDE8F0812E49A8684B6823F0FC
:1008DC00F00303434B60C4E76A682A4C012A23687F
:1008EC001CD113F4003FECD0636841F2883823F03C
:1008FC00030313436360FFF76DFC6B680746012B22
:10090C0014D1636803F00C03042BACD0FFF762FC2A
:10091C00C01B4045F5D90320BDE8F081022A02D165
:10092C0013F0007FDFE713F0020FDCE7022B0FD18F
:10093C00636803F00C03082B95D0FFF74BFCC01B2E
:10094C004045F5D9E7E7FFF745FCC01B4045E2D829
:10095C00636813F00C0FF6D185E7136823F00703D7
:10096C0033431360136803F007039E42A9D180E759
:10097C006368E96823F4E0630B4363607EE700BFC0
:10098C000020024000100240122400080800002041
:10099C00014B1868704700BF08000020044B054A43
:1009AC005B68C3F30223D35C034A1068D8407047DA
:1009BC00001002402224000808000020044B054AC5
:1009CC005B68C3F3C223D35C034A1068D8407047FA
:1009DC00001002402224000808000020036A70B5B1
:1009EC0023F001030362036A446882690D6822F0F4
:1009FC0073022A438D6823F002032B430A4DA8424D
:100A0C000BD1CD6823F008032B438E694D6924F478
:100A1C004074354323F004032C43446082614A68DC
:100A2C004263036270BD00BF002C0140036A70B5C5
:100A3C0023F480730362036A4468C2690D6822F070
:100A4C0073022A438D6823F4007343EA05230B4D8C
:100A5C00A8420DD1CD6823F4006343EA05238E69C7
:100A6C004D6924F44054354323F4806344EA05145F
:100A7C004460C2614A68C263036270BD002C0140CD
:100A8C00036A30B523F480530362036A4468C26975
:100A9C000D6822F4E64242EA05228D6823F40053E5
:100AAC0043EA0533064DA84202BF4D6924F4804445
:100ABC0044EA85144460C2614A680264036230BD32
:100ACC00002C01401A4A036890420AD0B0F1804FC2
:100ADC0007D0A2F59432904203D002F58062904286
:100AEC0015D14A6823F070031343114A90420AD07F
:100AFC00B0F1804F07D0A2F59432904203D002F5AA
:100B0C008062904203D1CA6823F4407313434A694C
:100B1C0023F08003134303608B68C3620B6883620A
:100B2C00034B984204BF0B69036301234361704775
:100B3C00002C014010B50446A0B190F83D3003F0F4
:100B4C00FF021BB980F83C2000F078FD02232068DE
:100B5C0084F83D30211DFFF7B5FF0123002084F8F8
:100B6C003D3010BD012010BD036A70B523F0100399
:100B7C000362036A446882690D6822F4E64242EA21
:100B8C0005228D6823F0200343EA05130B4DA84280
:100B9C000DD1CD6823F0800343EA05138E694D69AE
:100BAC0024F44064354323F0400344EA8504446054
:100BBC0082614A688263036270BD00BF002C0140F1
:100BCC0038B590F83C300446012B4FF0020025D08C
:100BDC00012384F83D0084F83C300C2A18D8DFE857
:100BEC0002F0071717171E1717172F1717174000A4
:100BFC002068FFF7F3FE236809699A6942F008023E
:100C0C009A619A6922F004029A619A690A439A617C
:100C1C000123002084F83D3084F83C0038BD206866
:100C2C00FFF7A2FF236809699A6942F400629A618E
:100C3C009A6922F480629A619A6942EA0122E6E793
:100C4C002068FFF7F3FE23680969DA6942F00802AD
:100C5C00DA61DA6922F00402DA61DA690A43DA61EC
:100C6C00D6E72068FFF70CFF23680969DA6942F4BC
:100C7C000062DA61DA6922F48062DA61DA6942EAE6
:100C8C000122ECE710B50124036A8C4023EA04032B
:100C9C000362036A8A401A43026210BD10B504460F
:100CAC0001220068FFF7EEFF2368064A00209342FA
:100CBC0002BF5A6C42F400425A641A6842F00102B4
:100CCC001A6010BD002C014090F83C3010B5012B7F
:100CDC004FF0020318D080F83D3003680C685A6856
:100CEC00496822F070025A605A6822435A609A6826
:100CFC0022F080029A609A680A439A60012380F875
:100D0C003D30002380F83C30184610BD2DE9F047EB
:100D1C000568C2682B69016923F4405313432B61A6
:100D2C008368EA680B43416922F4B05222F00C024A
:100D3C000B431343EB606B69826923F440731343D9
:100D4C006B61404B81469D424FF0190446D1FFF731
:100D5C0035FE04FB00F3D9F804604FF06408B600CC
:100D6C00B3FBF6F3B3FBF8F31E01FFF727FE60436A
:100D7C00D9F804309B00B0FBF3F7FFF71FFE60437C
:100D8C00D9F804309B00B0FBF3F3B3FBF8F308FB8A
:100D9C0013731B013233B3FBF8F303F0F007FFF7C7
:100DAC000DFE6043D9F804209200B0FBF2FAFFF775
:100DBC0005FE6043D9F804309B00B0FBF3F3B3FBA2
:100DCC00F8F308FB13A31B013233B3FBF8F303F066
:100DDC000F033B433344AB60BDE8F087FFF7DEFD08
:100DEC0004FB00F3D9F804604FF06408B600B3FBC1
:100DFC00F6F3B3FBF8F31E01FFF7D0FD6043D9F80F
:100E0C0004309B00B0FBF3F7FFF7C8FD6043D9F843
:100E1C0004309B00B0FBF3F3B3FBF8F308FB137344
:100E2C001B013233B3FBF8F303F0F007FFF7B6FD09
:100E3C006043D9F804209200B0FBF2FAFFF7AEFD44
:100E4C00B7E700BF00380140F8B504460E46174618
:100E5C001D4621680B6836EA030301D10020F8BD5A
:100E6C006B1CF7D095B923680320DA6822F4D07292
:100E7C00DA605A6922F001025A61202384F8393071
:100E8C0084F83A30002384F83830F8BDFFF7A2F923
:100E9C00C01B8542DDD2E6E710B5044640B390F89E
:100EAC00393003F0FF021BB980F8382000F046FC03
:100EBC002423226884F83930D368204623F4005365
:100ECC00D360FFF723FF236800201A6922F49042B5
:100EDC001A615A6922F02A025A61DA6842F4005205
:100EEC00DA602023E06384F8393084F83A3010BD9E
:100EFC00012010BD2DE9F0411F4690F83930044611
:100F0C00202B0D4690464ED1002949D0002A47D0BF
:100F1C0090F83830012B46D0012380F8383000236C
:100F2C00C363212380F83930FFF754F90646A4F83F
:100F3C002480A4F82680E38C9BB26BB93B463246E6
:100F4C0040212046FFF780FFA8B9202384F8380001
:100F5C0084F83930BDE8F081E38C3246013B9BB21A
:100F6C00E384A3688021B3F5805F20463B460ED115
:100F7C00FFF76AFF10B10320BDE8F0812B882268CF
:100F8C00C3F308035360236943B90235D3E7FFF772
:100F9C005BFF0028EFD123682A785A600135CAE735
:100FAC000120BDE8F0810220BDE8F08110B5164C9F
:100FBC0000212046FFF772FE04212046FFF76EFE4B
:100FCC0008212046FFF76AFE2046104C0C21FFF743
:100FDC0065FE00212046FFF761FE04212046FFF745
:100FEC005DFE08212046FFF759FE2046084C0C21D7
:100FFC00FFF754FE00212046FFF750FE2046BDE8C7
:10100C0010400421FFF74ABED801002054010020F3
:10101C0008010020092814D8DFE800F005090D0F9D
:10102C00111417191B1E4FF08043196470474FF0B1
:10103C008043D96370470A4BF7E7094BF9E7084B34
:10104C0099637047064B59637047064BFBE7054B9A
:10105C00F6E74FF08043F6E74FF08043F0E700BF30
:10106C000004004000080040411E002011F8013F20
:10107C0003B97047A3F13002D2B2092A05D9A3F102
:10108C006102052A06D8573BDAB202F00F0343EA95
:10109C000010EBE7A3F14102052A01D8373BF3E737
:1010AC001A46F2E74FF4803310B590B00122079343
:1010BC00002102240E934FF4E01306A80692089127
:1010CC000A920D940F93FFF7F7F900B1FEE70F2387
:1010DC0001934FF4806304934FF4A0630390214673
:1010EC0001A802940593FFF7AFFB044600B1FEE79D
:1010FC00FFF74EFC4FF47A73B0FBF3F0FFF7D4F824
:10110C000420FFF7E7F8224621464FF0FF30FFF7A7
:10111C008BF810B010BD00002DE9FF4100232249CF
:10112C0005468DF804308DF805308DF8063000F04A
:10113C00F5FB1E4C20602646002833D11C4928465E
:10114C0000F0ECFB206010B301241A4FDFF86C8028
:10115C0023463A46052102A800F0ACFB02A928461A
:10116C0000F0DCFB306050B1B0F8053004A820F87A
:10117C000C3DFFF779FF04EB080303F8010C013475
:10118C000B2CE5D10220C0B204B0BDE8F0810A49B5
:10119C00284600F0C3FB002820600CBF4FF0FF3046
:1011AC000320F0E70120EFE79E230008D401002084
:1011BC00A3230008A8230008AF230008480100203F
:1011CC0010B50446FEF7BCFF2146BDE8104082B2C4
:1011DC004FF0FF330148FFF78DBE00BF9401002094
:1011EC000148FFF7EDBF00BF0A22000830B58FB0F1
:1011FC00194B1A4A322101A800F05CFB01A8FFF739
:10120C00DFFF1548FFF788FF04461548FFF7D8FFA6
:10121C00022C0AD0032C12D0012C01D1FFF7E0FFD5
:10122C000022104B1A700FB030BD00220E4CA15C86
:10123C00D0B2FFF7EFFE01320A2AF8D1F0E7002214
:10124C001546094C1555D0B20021FFF7E3FE0132CB
:10125C000A2AF7D1E4E700BFA4000020D02100083F
:10126C00EF2100089000002048010020F0B58FB05D
:10127C00FEF792FFFFF716FF8F4B904C9A694FF4D5
:10128C00806742F010029A619A69204602F01002BF
:10129C000192019A9A6942F020029A619A6902F0CD
:1012AC0020020292029A9A6942F004029A619A69A7
:1012BC0002F004020392039A9A6942F008029A61BE
:1012CC009B69E76003F008030493049B4FF0804391
:1012DC00236000236360A3602361A361FFF72AFCF2
:1012EC0000B1FEE70590069005A92046FFF7ECFC3F
:1012FC00024600B1FEE76026089009900B9007A902
:10130C0020460796FFF75CFC00B1FEE7042207A914
:10131C002046FFF755FC00B1FEE7082207A920463E
:10132C00FFF74EFC00B1FEE70C2207A92046FFF7A1
:10133C0047FC054600B1FEE72046614C00F0B2F9CF
:10134C00604B204684E82800A560E7602561A56114
:10135C00FFF7F0FB00B1FEE70590069005A92046CB
:10136C00FFF7B2FC024600B1FEE7089009900B9023
:10137C0007A920460796FFF723FC00B1FEE70422DD
:10138C0007A92046FFF71CFC00B1FEE7082207A9BD
:10139C004B48FFF715FC00B1FEE70C2207A94848A3
:1013AC00FFF70EFC054600B1FEE7454800F07AF960
:1013BC00454C464B204684E828004FF48063A560DA
:1013CC00E3602561A561FFF7B5FB00B1FEE7059071
:1013DC00069005A92046FFF777FC024600B1FEE710
:1013EC006023089009900B9007A920460793FFF7FC
:1013FC00E7FB00B1FEE7042207A92046FFF7E0FB5C
:10140C00054600B1FEE7204600F04CF94FF4E133FD
:10141C002F4C304A204684E80C000C23A560E56074
:10142C002561A561E5616361FFF736FD054600B1F5
:10143C00FEE722682848D36843F02003D360FFF707
:10144C00BFFE2648FFF7BCFE2548FFF7B9FEE8B201
:10145C0000210135FFF7DEFD0A2DF8D1FFF7A6FDBF
:10146C0004240022D0B2FF21FFF7D4FD01320A2A56
:10147C00F8D16420FEF7B4FE0022D0B20021FFF7B1
:10148C00C9FD01320A2AF8D14FF49670013CFEF7DF
:10149C00A7FE14F0FF04E4D11248FFF791FEFFF70A
:1014AC009FFE114C2378012B01D1FFF79FFE0120E9
:1014BC00FEF796FEF6E700BF00100240D8010020B0
:1014CC0054010020000400400801002000080040E6
:1014DC00940100200038014064230008B323000865
:1014EC007F23000895230008900000200368254AFC
:1014FC005B6870B5DBB2082B0446137001D07F2BF0
:10150C000DD1214A1388013B1BB2002BB8BF00231D
:10151C0013802268D36843F02003D36070BD0D2B79
:10152C009DBF42F20142DA40D243012212F0010F78
:10153C00164D12D12B7853B9134AB2F9001031B1B0
:10154C001380012212484354124B1A70E1E71248DF
:10155C00FFF736FE00232B70DBE729780029D8D162
:10156C0009480B4EB0F90020B354531C1BB2632B2B
:10157C000380CEDD0123074A2B700180317013707C
:10158C00C7E700BF8D0000208E0000208C000020DB
:10159C00A400002090000020B0210008254B07B5C6
:1015AC009A69032042F001029A619A6902F00102E1
:1015BC000092009ADA6942F08052DA61DB6903F03A
:1015CC0080530193019BFEF71DFE00226FF00B0070
:1015DC001146FEF729FE00226FF00A001146FEF7B5
:1015EC0023FE00226FF009001146FEF71DFE0022BB
:1015FC006FF004001146FEF717FE00226FF0030097
:10160C001146FEF711FE00226FF001001146FEF7A5
:10161C000BFE00224FF0FF301146FEF705FE064A86
:10162C00536823F0E06343F00073536003B05DF83C
:10163C0004FB00BF0010024000000140036884B0AE
:10164C00B3F1804F0CD103F50433DA6942F0010297
:10165C00DA61DB6903F001030193019B04B070476D
:10166C000D4A93420AD10D4BDA6942F00202DA615B
:10167C00DB6903F002030293029BEFE7084A9342F3
:10168C00ECD1064BDA6942F00402DA61DB6903F053
:10169C0004030393039BE1E70004004000100240A5
:1016AC000008004030B5036885B0B3F1804F1CD101
:1016BC0040F608430225032469461B488DE82800A0
:1016CC000394FEF719FE4FF40043694617488DE862
:1016DC0028000394FEF710FE154A536843F0E063AC
:1016EC0043F44073536005B030BD124A934211D19C
:1016FC000324C023022569460C488DE82800039476
:10170C00FEF7FAFD8DE83000039469460648FEF7B3
:10171C00F3FDE8E7084A9342E5D10223C0228DE8A5
:10172C000C0003230393F0E7000C01400008014078
:10173C0000000140000400400008004030B5026881
:10174C00164B87B09A4227D103F558439A69022564
:10175C0042F480429A619B6902A903F4804301938D
:10176C00019B4FF40073029303230D48002405934F
:10177C000395FEF7C1FD4FF4806302A9084802935C
:10178C0003940495FEF7B8FD252022462146FEF76A
:10179C004BFD2520FEF77CFD07B030BD0038014025
:1017AC00000801407047FEE7FEE7FEE7FEE77047E2
:1017BC007047704708B5FEF701FDBDE80840FEF71D
:1017CC0096BD000002480368DB68FFF78FBE00BFC0
:1017DC00940100200F4B1A6842F001021A605968FC
:1017EC000D4A0A405A601A6822F0847222F4803240
:1017FC001A601A6822F480221A605A6822F4FE02D7
:10180C005A604FF41F029A604FF00062034B9A60CB
:10181C00704700BF001002400000FFF800ED00E030
:10182C00002103E00B4B5B58435004310A480B4B2F
:10183C0042189A42F6D30A4A02E0002342F8043BCB
:10184C00084B9A42F9D3FFF7C5FF00F00FF8FFF7EA
:10185C000DFD704768240008000000207000002077
:10186C00700000201C020020FEE7000070B500256F
:10187C000C4E0D4CA41BA410A54209D100F07EFC0B
:10188C0000250A4E0A4CA41BA410A54205D170BD1C
:10189C0056F8253098470135EEE756F8253098472D
:1018AC000135F2E760240008602400086024000879
:1018BC00642400080CB430B5174B0C1E9DB01D6889
:1018CC0008DA8B234FF0FF302B601DB0BDE83040A1
:1018DC0002B070474FF40273ADF814300CBF2346BE
:1018EC0004F1FF33049307934FF6FF7302900690B5
:1018FC00ADF81630209A21AB02A92846019300F0CE
:10190C0083F8431CBCBF8B232B60002CDDD0002242
:10191C00029B1A70D9E700BF0C000020F0B50378C9
:10192C0033B1034618465E1C1B7833B91846F0BD1C
:10193C000B78002B18BF0020F0BD4D1E441E15F86F
:10194C00012F002AF3D014F8017F33469742F6D0CA
:10195C00E8E72DE9F0478E6882469E420C46914698
:10196C00984635D88A8912F4906F31D002232568B5
:10197C0009696F1A656905EB450595FBF3F508F1E7
:10198C0001033B449D4238BF1D46530531D52946C2
:10199C0000F046FB064650B90C23CAF80030A38968
:1019AC004FF0FF3043F04003A381BDE8F0873A4687
:1019BC00216900F0C3FAA38923F4906343F08003F8
:1019CC00A38126613E44266046466561ED1BA560F9
:1019DC00464528BF464649463246206800F0B9FACB
:1019EC00A36800209B1BA36023681E442660BDE8EF
:1019FC00F0872A4600F072FB06460028E1D12169E7
:101A0C00504600F0C1FAC7E72DE9F04F9DB00393A3
:101A1C008B8980461C060D4616460FD50B696BB993
:101A2C00402100F0FDFA2860286128B90C23C8F881
:101A3C0000304FF0FF30C4E040236B61002309936A
:101A4C0020238DF8293030234FF0010B8DF82A30EC
:101A5C0037463C4614F8013B002B3CD1B7EB060A49
:101A6C000BD05346324629464046FFF772FF0130F1
:101A7C0000F0A280099B534409933B78002B00F0A3
:101A8C009B8000234FF0FF3204930793059206933B
:101A9C008DF853301A9305222178504800F040FA03
:101AAC00671C049BD8B9D90644BF20228DF853205B
:101ABC001A0744BF2B228DF8532022782A2A16D0DD
:101ACC0000210A20079A27463B780134303B092B2A
:101ADC0050D9C9B111E0252BC0D02746B9E73F4AF0
:101AEC003C46801A0BFA00F018430490D3E7039A93
:101AFC00111D12680391002A01DB079204E0524287
:101B0C0043F00203079204933B782E2B0DD17B7884
:101B1C00791C2A2B32D1039B02371A1D1B680392A6
:101B2C00002BB8BF4FF0FF3305932D4C03223978AF
:101B3C00204600F0F5F938B14023001B03FA00F001
:101B4C00049B0137034304933978062225487E1CF5
:101B5C008DF8281000F0E4F9002835D0224BFBB9A1
:101B6C00039B073323F0070308330393099B4B4470
:101B7C0009936DE700FB02320121A4E700230A243C
:101B8C00184605930F463A780131303A092A03D9A1
:101B9C00002BCAD00590C8E704FB00200123F1E715
:101BAC0003AB00932A46114B04A94046AFF30080C7
:101BBC00B0F1FF3F8146D9D1AB895B063FF539AF18
:101BCC0009981DB0BDE8F08F03AB00932A46074B74
:101BDC0004A9404600F084F8EAE700BF2A24000874
:101BEC003024000834240008000000005F190008AD
:101BFC002DE9F04791461F468A680B6906469342C9
:101C0C00B8BF1346C9F8003091F843200C46DDF8F4
:101C1C00208012B10133C9F800302368990642BF05
:101C2C00D9F800300233C9F80030256815F00605E4
:101C3C0007D104F1190AE368D9F800209B1A9D42D8
:101C4C002ADB94F843302268003318BF0123920634
:101C5C002FD404F1430239463046C047013022D01C
:101C6C002368E56803F00603042B18BF0025D9F898
:101C7C0000204FF0000908BFAD1AA368226908BF05
:101C8C0025EAE5759342C4BF9B1AED181A344D45ED
:101C9C001BD10020BDE8F08701235246394630465F
:101CAC00C047013003D14FF0FF30BDE8F08701355C
:101CBC00C1E73020E11881F843005A1C94F8451014
:101CCC002244023382F84310C3E7012322463946EB
:101CDC003046C0470130E6D009F10109D7E70000D2
:101CEC002DE9F04317460A7E85B06E2A98460646C3
:101CFC000C460C9B01F1430E00F0BC801AD8632AF1
:101D0C002ED00AD8002A00F0C880582A00F08A8009
:101D1C0004F1420584F842202AE0642A01D0692AA1
:101D2C00F6D121681A6811F0800F23D0111D1960AB
:101D3C00136827E0732A00F0B48008D86F2A2AD0E1
:101D4C00702AE5D10A6842F020020A6003E0752A85
:101D5C0021D0782ADCD178226F4984F8452064E0C0
:101D6C001A6801F14205111D1960136884F842309C
:101D7C000123A3E011F0400F02F104011960D7D048
:101D8C00B2F90030002B03DA2D225B4284F8432099
:101D9C0062490A2217E02068196810F0800F03D0FE
:101DAC00081D18600B6806E010F0400F01F10400EC
:101DBC001860F7D00B886F2A14BF0A2208225749E3
:101DCC00002084F843006568002DA560C0F29C805B
:101DDC00206820F004002060002B3FD1002D40F043
:101DEC0095807546082A0BD12368DA0708D5236934
:101DFC0062689A42DEBF302305F8013C05F1FF35DD
:101E0C00AEEB05032361CDF800803B4603AA2146C7
:101E1C003046FFF7EDFE013055D14FF0FF3005B0E5
:101E2C00BDE8F08381F845203C492268186812F01F
:101E3C00800F00F104051D6001D0036802E0550617
:101E4C00FBD50388D00744BF42F0200222601BB9A7
:101E5C00226822F0200222601022B1E77546B3FB03
:101E6C00F2F002FB1033CB5C05F8013D0346002871
:101E7C00F5D1B7E708681A6810F0800F496904D0EB
:101E8C00101D18601368196007E010F0400F02F184
:101E9C00040018601368F6D019800023754623617E
:101EAC00B1E71A68111D196015680021626828468F
:101EBC0000F036F808B1401B6060636823610023B2
:101ECC0084F843309FE723692A4639463046C04799
:101EDC000130A2D023689B0707D5002504F119090E
:101EEC00E368039A9B1A9D4205DBE068039B9842CA
:101EFC00B8BF184693E701234A4639463046C047D7
:101F0C0001308AD00135EBE7002BA7D10B7804F117
:101F1C00420584F8423065E74C2400083B24000855
:101F2C0010B5C9B202449042034601D1002010BD45
:101F3C001C7801308C42F6D1184610BD10B5431EEA
:101F4C000A44914200D110BD11F8014B03F8014F26
:101F5C00F7E7884210B501EB020303D8421E994201
:101F6C000CD110BD9842F9D28118D21AD34200D1AB
:101F7C0010BD13F8014D01F8014DF7E711F8014BB5
:101F8C0002F8014FEBE7000038B50546002943D0B5
:101F9C0051F8043C0C1F002BB8BFE41800F0D4F827
:101FAC001E4A1368104633B9636014602846BDE8B6
:101FBC00384000F0CAB8A3420BD92168621893428A
:101FCC0001BF1A685B685218226063600460EDE719
:101FDC0013465A680AB1A242FAD919685818A04295
:101FEC000BD120680144581882421960DED1106868
:101FFC005268014419605A60D8E702D90C232B604F
:10200C00D4E7206821188A4201BF11685268091868
:10201C00216062605C60C9E738BD00BF940000209D
:10202C0070B5CD1C25F0030508350C2D38BF0C25DB
:10203C00002D064601DBA94203D90C233360002096
:10204C0070BD00F081F8234A1468214691B9224CE6
:10205C0023681BB9304600F067F8206029463046EB
:10206C0000F062F8431C26D10C233046336000F09C
:10207C006CF8E4E70B685B1B1AD40B2B0FD90B60C5
:10208C00CC18CD50304600F060F804F10B00231D45
:10209C0020F00700C31A1BD05A42E25070BD8C428C
:1020AC000BBF63684B681360636018BF0C46E9E7AD
:1020BC000C464968CAE7C41C24F00304A04205D0AE
:1020CC00211A304600F030F80130CDD02560D9E728
:1020DC0070BD00BF9400002098000020F8B50746A2
:1020EC0014460E4621B91146BDE8F840FFF798BFDB
:1020FC0022B9FFF749FF25462846F8BD00F026F81F
:10210C0084420FD921463846FFF78AFF054600283E
:10211C00F2D031462246FFF711FF31463846FFF721
:10212C0033FFE9E73546E7E738B50023054C0546AC
:10213C000846236000F014F8431C02D1236803B155
:10214C002B6038BD180200207047704751F8040C02
:10215C000028A0F10400BCBF0B58C0187047000049
:10216C00044B0246196809B90349196018680244FE
:10217C001A6070479C0000201C020020F8B500BFBC
:10218C00F8BC08BC9E467047F8B500BFF8BC08BC4C
:04219C009E467047A4
:1021A00002030405060708090A0B0C0D0E0F101098
:1021B0004552524F52203E205541525431207061B9
:1021C000636B657420746F6F206C6F6E670A0D000F
:1021D0003C55415254303E20696E636F6D696E67A5
:1021E000206D6573736167653A2025730A0D002DB4
:1021F00020636865636B20636F6D6D616E6420732F
:102200007563636573732E0A0D000A0D436F6D6D60
:10221000616E647320666F72207573653A0A0D688B
:10222000656C703A202D2054686973207061676571
:102230002E200A0D6F666620202D205365742061C4
:102240006C6C206368616E6E656C7320746F207AAD
:1022500065726F2E0A0D6366673A202D20436F6EFC
:10226000666967206368616E6E656C2E200A0D20BA
:102270002020202020204578616D706C653A0A0D81
:102280002020202020202020206366673A636830C9
:10229000323D33372C636830353D61380A0D2020DC
:1022A000202020202020202E2E2E2E2E2E0A0D2003
:1022B00020202020202020206366673A6368303089
:1022C0003D66662C636830313D65302C6368303282
:1022D0003D64302C636830333D63302C63683034A8
:1022E0003D62302C636830353D61302C6368303698
:1022F0003D39302C636830373D38302C63683038D6
:102300003D37302C636830393D36300A0D202020AF
:102310002020202020202E2E2E6366673A636858E6
:10232000583D5959202D207365742070776D2063B6
:1023300068616E6E656C205858203D205959202DDB
:1023400020636F6E7374616E7420696E20686578A7
:1023500020666F726D61742E2D2D2D0A0D6C6F67C6
:102360003A0A0D000A0D4B65726E656C207374613C
:1023700072746564206F6E202E2E2E2E0A0D000AB8
:102380000D74657374696E67206861726477617239
:10239000652E2E2E002D6F6B2E2E2E0A0D006865D9
:1023A0006C70006366673A00636825303258006FCE
:1023B0006666005175616E7469756D206C61736538
:1023C00072206C6564206472697665722C207631A7
:1023D0002E30202830343035323029206279206484
:1023E0007261676F7368613230303040676D782E8C
:1023F0006E65742C20486174536F667420286329BD
:102400000A0D4C7574736B2C55412C323032300AE6
:102410000D00000000000000000001020304060798
:1024200008090000000001020304232D302B2000C6
:10243000686C4C006566674546470030313233347E
:10244000353637383941424344454600303132331E
:1024500034353637383961626364656600000000E0
:04246000310100083E
:042464000D0100085E
:10246800010000001000000000A24A041000002033
:102478000000000000000000000000000000000054
:102488000000000000000000000000000000000044
:102498000000000000000000000000000000000034
:1024A8000000000000000000000000000000000024
:1024B8000000000000000000000000000000000014
:1024C8000000000000000000000000000000000004
:040000050800182DAA
:00000001FF
